[
    {
        "blockNumber": 2283278,
        "fee": 5000,
        "hash": "1cc470e950aa7f0437b9c2bf47de90a72df6d4009356fa3c5051a466fc04d762",
        "hex": "0200000001f867bc4cb039c1e4c927536b70c6b18691fb3d01288688fed8b60bc48d23b19f010000006a473044022044c7898613076b105e65884140203e61358b9cadf76b22337db3aad329ce89f6022059d700a95df4845d2635b16b5d4ca7c385d73fc59f71f1ff9fc066d6b1b6c584012103e410df35111d77514d0279c985b0d893286dea76572642893894498d1e109652ffffffff0210270000000000001976a914beb90a9604230b4e1bcc9305d2af2d69bf5f51b388ac084c0100000000001976a91445628a2afc77aa0ca805b5960a9cf06695bbaf5688ac00000000",
        "index": 15,
        "inputs": [
            {
                "prevout": {
                    "hash": "9fb1238dc40bb6d8fe888628013dfb9186b1c6706b5327c9e4c139b04cbc67f8",
                    "index": 1
                },
                "sequence": 4294967295,
                "script": "473044022044c7898613076b105e65884140203e61358b9cadf76b22337db3aad329ce89f6022059d700a95df4845d2635b16b5d4ca7c385d73fc59f71f1ff9fc066d6b1b6c584012103e410df35111d77514d0279c985b0d893286dea76572642893894498d1e109652",
                "coin": {
                    "version": 2,
                    "height": 2282882,
                    "value": 100000,
                    "script": "76a91445628a2afc77aa0ca805b5960a9cf06695bbaf5688ac",
                    "address": "mmqpxx41Fr1kKGSGkVbeJjqeKK3itcy2e6",
                    "coinbase": false
                }
            }
        ],
        "locktime": 0,
        "outputs": [
            {
                "value": 10000,
                "script": "76a914beb90a9604230b4e1bcc9305d2af2d69bf5f51b388ac",
                "address": "mxuQMQAsnbYTRqWhenF1Hj4qf5CvcE8L8c"
            },
            {
                "value": 85000,
                "script": "76a91445628a2afc77aa0ca805b5960a9cf06695bbaf5688ac",
                "address": "mmqpxx41Fr1kKGSGkVbeJjqeKK3itcy2e6"
            }
        ],
        "size": 225,
        "time": 1656513613,
        "version": 2,
        "vsize": 225,
        "weight": 900,
        "witnessHash": "1cc470e950aa7f0437b9c2bf47de90a72df6d4009356fa3c5051a466fc04d762"
    },
]